:020000040800F2
:100000001804002045010008D7040008CF040008A8
:10001000D30400088D010008E50900080000000075
:10002000000000000000000000000000750600084D
:1000300091010008000000005D050008F1070008BC
:100040005F0100085F0100085F0100085F01000810
:100050005F0100085F010008950100085F010008CA
:100060005F0100085F0100085F0100085F010008F0
:100070005F0100085F0100085F0100085F010008E0
:100080005F0100085F0100085F0100085F010008D0
:100090005F0100085F0100085F0100085F010008C0
:1000A0005F0100085F0100085F0100085F010008B0
:1000B0005F0100085F0100085F0100085F010008A0
:1000C0005F0100085F0100085F0100085F01000890
:1000D0005F0100085F0100085F0100085F01000880
:1000E000C10100085F0100085F0100085F0100080E
:1000F0005F0100085F0100085F0100085F01000860
:100100005F0100085F0100085F0100085F0100084F
:100110005F0100085F0100085F0100085F0100083F
:100120005F0100085F0100085F0100085F0100082F
:10013000DFF80CD000F018F800480047550A000816
:10014000180400200648804706480047FEE7FEE7FF
:10015000FEE7FEE7FEE7FEE7FEE7FEE7FEE7FEE777
:10016000F507000831010008064C074D06E0E0687D
:1001700040F0010394E8070098471034AC42F6D3EE
:10018000FFF7DAFFEC0B00080C0C000800BFFEE7DD
:100190007047000010B5012000F030F850B107485A
:1001A0000078401C0549087008460078072801DBE4
:1001B00000200870012000F01BF810BD1400002082
:1001C00010B54FF4005000F019F850B1074800780E
:1001D000401E0649087008460078002801DC00200F
:1001E00008704FF4005000F003F810BD1400002018
:1001F00001490860704700001404014001460020D6
:100200000022074B1B6803EA0102054B14331B68ED
:100210000B4013B10AB1012000E00020704700003C
:1002200000040140002123498279002A3AD00A467D
:10023000126803689A430B461A600A1D1268036825
:100240009A430B1D1A60027911440A6803681A4325
:100250000A60184A0832126803689A43154B08333B
:100260001A601A1D126803689A43124B0C331A6005
:100270004279102A0ED11A1F126803681A430D4BD7
:1002800008331A601A1D126803681A43094B0C33AD
:100290001A600DE00749427911440A6803681A435D
:1002A0000A6005E0027911440A6803689A430A600B
:1002B00070470000000401400EB500F043F8012132
:1002C000152000F05DF90120ADF8080004208DF83C
:1002D0000B0002A9194800F06FF84FF40050ADF878
:1002E000080004208DF80B0002A9154800F064F8FE
:1002F0000021084600F040F80120009000208DF811
:10030000040008208DF8050001208DF806006846DD
:10031000FFF788FF0D21022000F02EF84FF4005067
:10032000009000208DF8040008208DF805000120C1
:100330008DF806006846FFF775FF0EBD0008014006
:100340000010014008B54FF4C06000F0FDF8062031
:100350008DF8000001208DF801008DF802008DF865
:100360000300684600F0B8F828208DF800006846C1
:1003700000F0B2F808BD000030B500228B071C0F5A
:100380000F2303FA04F20B4B8C1053F824309343E1
:10039000084C8D1044F8253023468C1053F8243037
:1003A0008C07240F00FA04F42343024C8D1044F808
:1003B000253030BD080001402DE9F04102460025FE
:1003C0000026002000230024002791F803C00CF031
:1003D0000F0591F803C00CF0100CBCF1000F03D016
:1003E00091F802C04CEA050591F800C0BCF1000F7D
:1003F00031D0146800202BE04FF0010C0CFA00F310
:10040000B1F800C00CEA03069E4220D183004FF0F1
:100410000F0C0CFA03F7BC4305FA03FC4CEA040486
:1004200091F803C0BCF1280F06D14FF0010C0CFA73
:1004300000FCC2F814C00AE091F803C0BCF1480FF8
:1004400005D14FF0010C0CFA00FCC2F810C0401CA2
:100450000828D1D31460B1F800C0BCF1FF0F34DD1F
:10046000546800202EE000F1080C4FF0010808FA53
:100470000CF3B1F800C00CEA03069E4221D18300C0
:100480004FF00F0C0CFA03F7BC4305FA03FC4CEADF
:10049000040491F803C0BCF1280F05D100F1080C49
:1004A00008FA0CF8C2F8148091F803C0BCF1480FA8
:1004B00007D100F1080C4FF0010808FA0CF8C2F857
:1004C0001080401C0828CED35460BDE8F08100BFE6
:1004D000FEE700BFFEE7704770B5002100230F2242
:1004E000C47804B3154C246804F4E064C4F5E064F3
:1004F000210AC1F10403CA40447804FA03F1847864
:100500001440214309010E4C0678A155047804F0EB
:100510001F050124AC4005786D11AD0005F1E02503
:10052000C5F8004109E0047804F01F050124AC403F
:10053000044D0678761145F8264070BD0CED00E0BC
:1005400000E400E080E100E002490143024A11605A
:10055000704700000000FA050CED00E07047000055
:1005600029B1064AD2690243044BDA6104E0034A26
:10057000D2698243014BDA617047000000100240EB
:1005800029B1064A92690243044B9A6104E0034A86
:1005900092698243014B9A6170470000001002404B
:1005A00030B500210022002400232D4D6D6805F098
:1005B0000C0121B1042905D0082923D105E0294DDA
:1005C000056022E0274D05601FE0254D6D6805F4AC
:1005D0007012234D6D6805F48034022505EB9242BC
:1005E0001CB9214D554305600BE01D4D6D6805F4A8
:1005F00000351DB11C4D5543056002E0194D5543B2
:10060000056002E0174D056000BF00BF144D6D6826
:1006100005F0F0010909154D6B5C0568DD4045608A
:100620000F4D6D6805F4E061090A104D6B5C45687B
:10063000DD4085600A4D6D6805F46051C90A0B4DB7
:100640006B5C4568DD40C560054D6D6805F4404153
:10065000890B074D6B5CC568B5FBF3F5056130BDD3
:100660000010024000127A0000093D000000002046
:1006700010000020704710B500F002F810BD000017
:100680000CB50020019000903348006840F48030A1
:100690003149086000BF3048006800F40030009025
:1006A0000198401C0190009818B90198B0F5A06F0E
:1006B000F1D12948006800F4003010B10120009009
:1006C00001E0002000900098012843D123480068F1
:1006D00040F01000214908600846006820F003003F
:1006E00008600846006840F0020008601A48406848
:1006F000194948600846406848600846406840F428
:10070000806048600846406820F47C1048600846D5
:10071000406840F4E81048600846006840F0807087
:10072000086000BF0C48006800F000700028F9D095
:100730000948406820F003000749486008464068BF
:1007400040F00200486000BF0348406800F00C0021
:100750000828F9D10CBD0000001002400020024022
:1007600030B50146B1F1807F01D3012030BD21F0C9
:100770007F40401E4FF0E022506150170F220028AA
:1007800007DA13071D0E094B00F00F04241F1D5537
:1007900003E013071C0E064B1C5400BF00204FF053
:1007A000E0229061072010610020DFE718ED00E0F3
:1007B00000E400E070B504460C48FFF7D1FF0025C7
:1007C00008E000BF4FF0E020006900F4803000280E
:1007D000F8D06D1CA542F4D34FF0E020006920F062
:1007E00001004FF0E021086170BD000040190100D8
:1007F0007047000010B51348006840F0010011492F
:10080000086008464068104908400E49486008469C
:1008100000680E4908400B4908600846006820F44B
:10082000802008600846406820F4FE0048604FF4CD
:100830001F008860FFF71FFF4FF000600449086049
:1008400010BD0000001002400000FFF8FFFFF6FEA0
:1008500008ED00E021B1828942F40052828104E077
:1008600082894DF6FF731A408281704700B585B0CA
:1008700001210420FFF784FE01214804FFF770FEE8
:100880000420ADF8100018208DF8130003208DF817
:10089000120004A91248FFF78FFD0820ADF81000E0
:1008A00004208DF8130004A90D48FFF785FD4FF4CF
:1008B000E13000900020ADF80400ADF80600ADF87E
:1008C0000800ADF80C000C20ADF80A006946054898
:1008D00000F018F801210348FFF7BCFF05B000BD88
:1008E000000801400044004002460020B1F5007FAE
:1008F00000D100BF13880B400BB1012000E00020A5
:10090000704700002DE9F04786B005460E460024EA
:10091000A24600BFA1460027B08900B100BF2F4604
:100920002C8A4CF6FF700440F08804432C82AC897A
:100930004EF6F3100440B0883189084371890843AA
:100940000443AC81AC8A4FF6FF400440B0890443B5
:10095000AC8201A8FFF724FE1F48874202D1DDF8D0
:1009600010A001E0DDF80CA0A88900F4004040B11F
:100970000AEBCA0000EB0A1031684900B0FBF1F83D
:1009800007E00AEBCA0000EB0A1031688900B0FBEF
:10099000F1F86420B8FBF0F004012009642101FBA8
:1009A0001089A88900F4004040B1322000EBC90052
:1009B000B0FBF1F000F00700044308E0322000EB48
:1009C00009106421B0FBF1F000F00F0004432C810A
:1009D00006B0BDE8F087000000380140C1F308020E
:1009E0008280704700BFFEE72DE9F04107460D46C3
:1009F0001646002405E0295D384600F00DF8601C1D
:100A0000C4B2B442F7DB00BF40213846FFF76CFFA9
:100A10000028F9D0BDE8F08170B504460D4629469E
:100A20002046FFF7DBFF00BF80212046FFF75CFF79
:100A30000028F9D070BD02E008C8121F08C1002AC2
:100A4000FAD170477047002001E001C1121F002A4F
:100A5000FBD170471FB55FA30FCB8DE80F000025BA
:100A6000FFF704FFFFF728FCB2E05E480078072894
:100A700073D2DFE800F004172A3D50617300E820CC
:100A80008DF8060003208DF8070014208DF809006A
:100A900005208DF80A00E8208DF80C0003208DF861
:100AA0000D007FE0E8208DF8060002208DF8070099
:100AB00014208DF8090005208DF80A00E8208DF833
:100AC0000C0003208DF80D006CE0E8208DF8060086
:100AD00003208DF8070014208DF8090005208DF8FB
:100AE0000A0058208DF80C0002208DF80D0059E006
:100AF000E8208DF8060003208DF8070014208DF8FB
:100B0000090000208DF80A00E8208DF80C00032071
:100B10008DF80D0046E000208DF806008DF80700E6
:100B200014208DF8090005208DF80A0000208DF8AA
:100B30000C008DF80D0035E000208DF806008DF8D2
:100B4000070014208DF8090003208DF80A0000200A
:100B50008DF80C008DF80D0024E010E000208DF8D9
:100B600006008DF8070014208DF8090005208DF887
:100B70000A0000208DF80C008DF80D0012E0E8202E
:100B80008DF8060003208DF8070014208DF8090069
:100B900005208DF80A00E8208DF80C0003208DF860
:100BA0000D0000BF00BF022405E01DF8040028442A
:100BB000C5B2601CC4B20E2CF7DB8DF80E500025B8
:100BC0001420FFF7F7FD0F2269460748FFF70CFFD7
:100BD0004BE7000055AA0AFFF201000002140003CF
:100BE0000000000014000020004400400C0C00082D
:100BF0000000002018000000360A0008240C00083D
:100C00001800002000040000460A00080000000050
:100C1000010203040102030406070809020406088E
:040C200000000000D0
:0400000508000131BD
:00000001FF
